{
  "transactions": [
    {
      "hash": "0x48065bd3c1957a46b055398b4e4bf4c250f27c10d08d12dae2b83b7c75a1dbd9",
      "transactionType": "CALL",
      "contractName": null,
      "contractAddress": "0xa235d76f89d89187048b2abb41cf5ad9c746b18a",
      "function": "setStrategyCore(address)",
      "arguments": [
        "0xE28Ad1258CF2B0FC27Da6fF4A586825BCB794cc5"
      ],
      "transaction": {
        "from": "0x156c7ee65c5a9e6efc62ce4645b631c5617ef894",
        "to": "0xa235d76f89d89187048b2abb41cf5ad9c746b18a",
        "value": "0x0",
        "input": "0x7f4b437f000000000000000000000000e28ad1258cf2b0fc27da6ff4a586825bcb794cc5",
        "nonce": "0x1c7",
        "chainId": "0xab5"
      },
      "additionalContracts": [],
      "isFixedGasLimit": false
    },
    {
      "hash": "0xf728f08edefc10eecd32b79d8284a55a928bc1b8e5c597909eae2be686c6b521",
      "transactionType": "CALL",
      "contractName": null,
      "contractAddress": "0xcceff0ba646de3e0471acbb68c575dd81b76449d",
      "function": "setWallets(address,address,address)",
      "arguments": [
        "0x156C7eE65C5A9e6eFc62CE4645B631c5617EF894",
        "0xA235d76F89d89187048B2aBb41cF5Ad9C746b18A",
        "0xe426B4a057F0d05C907788f76d42Bad51023fE6B"
      ],
      "transaction": {
        "from": "0x156c7ee65c5a9e6efc62ce4645b631c5617ef894",
        "to": "0xcceff0ba646de3e0471acbb68c575dd81b76449d",
        "value": "0x0",
        "input": "0x75cb1bd1000000000000000000000000156c7ee65c5a9e6efc62ce4645b631c5617ef894000000000000000000000000a235d76f89d89187048b2abb41cf5ad9c746b18a000000000000000000000000e426b4a057f0d05c907788f76d42bad51023fe6b",
        "nonce": "0x1c8",
        "chainId": "0xab5"
      },
      "additionalContracts": [],
      "isFixedGasLimit": false
    },
    {
      "hash": "0x50b51bad01a56c362bfbd0543138c1a582baef5841128668006d7c88ed175e2e",
      "transactionType": "CALL",
      "contractName": null,
      "contractAddress": "0xe426b4a057f0d05c907788f76d42bad51023fe6b",
      "function": "updateStrategyCore(address)",
      "arguments": [
        "0xE28Ad1258CF2B0FC27Da6fF4A586825BCB794cc5"
      ],
      "transaction": {
        "from": "0x156c7ee65c5a9e6efc62ce4645b631c5617ef894",
        "to": "0xe426b4a057f0d05c907788f76d42bad51023fe6b",
        "value": "0x0",
        "input": "0xe98b6bfd000000000000000000000000e28ad1258cf2b0fc27da6ff4a586825bcb794cc5",
        "nonce": "0x1c9",
        "chainId": "0xab5"
      },
      "additionalContracts": [],
      "isFixedGasLimit": false
    },
    {
      "hash": "0xa0a8a7abd6ec32a6488a4f452ea08064fe5ccb19b83a4ae57e6ab6fb57b3f842",
      "transactionType": "CALL",
      "contractName": null,
      "contractAddress": "0x7930f06a12416ad57faf5d32f6a742e641313e76",
      "function": "setAuthorizedCaller(address,bool)",
      "arguments": [
        "0xA235d76F89d89187048B2aBb41cF5Ad9C746b18A",
        "true"
      ],
      "transaction": {
        "from": "0x156c7ee65c5a9e6efc62ce4645b631c5617ef894",
        "to": "0x7930f06a12416ad57faf5d32f6a742e641313e76",
        "value": "0x0",
        "input": "0x454bbd29000000000000000000000000a235d76f89d89187048b2abb41cf5ad9c746b18a0000000000000000000000000000000000000000000000000000000000000001",
        "nonce": "0x1ca",
        "chainId": "0xab5"
      },
      "additionalContracts": [],
      "isFixedGasLimit": false
    },
    {
      "hash": "0xbe07b2ffd769612992f05c3070fe8fb61f2eeba346168ec37f2dbc1f84e0d293",
      "transactionType": "CALL",
      "contractName": null,
      "contractAddress": "0x7930f06a12416ad57faf5d32f6a742e641313e76",
      "function": "startNewEpoch()",
      "arguments": [],
      "transaction": {
        "from": "0x156c7ee65c5a9e6efc62ce4645b631c5617ef894",
        "to": "0x7930f06a12416ad57faf5d32f6a742e641313e76",
        "value": "0x0",
        "input": "0x3aab0a62",
        "nonce": "0x1cb",
        "chainId": "0xab5"
      },
      "additionalContracts": [],
      "isFixedGasLimit": false
    },
    {
      "hash": "0x0ad3142cc0b80bdd683eca1584e413cd4d2acd601b020eb1c352dfcf4ec19c5d",
      "transactionType": "CALL",
      "contractName": null,
      "contractAddress": "0xcceff0ba646de3e0471acbb68c575dd81b76449d",
      "function": "setCoordinator(address)",
      "arguments": [
        "0x7c32347c7Aed1ADDb41426563aed3615961001cC"
      ],
      "transaction": {
        "from": "0x156c7ee65c5a9e6efc62ce4645b631c5617ef894",
        "to": "0xcceff0ba646de3e0471acbb68c575dd81b76449d",
        "value": "0x0",
        "input": "0x8ea981170000000000000000000000007c32347c7aed1addb41426563aed3615961001cc",
        "nonce": "0x1cc",
        "chainId": "0xab5"
      },
      "additionalContracts": [],
      "isFixedGasLimit": false
    },
    {
      "hash": "0xff9ecec0c4f73c948223ff49ea92e6e21fbe3d9ee24694018aafdbffe674a15c",
      "transactionType": "CALL",
      "contractName": null,
      "contractAddress": "0xe28ad1258cf2b0fc27da6ff4a586825bcb794cc5",
      "function": "setCoordinator(address)",
      "arguments": [
        "0x7c32347c7Aed1ADDb41426563aed3615961001cC"
      ],
      "transaction": {
        "from": "0x156c7ee65c5a9e6efc62ce4645b631c5617ef894",
        "to": "0xe28ad1258cf2b0fc27da6ff4a586825bcb794cc5",
        "value": "0x0",
        "input": "0x8ea981170000000000000000000000007c32347c7aed1addb41426563aed3615961001cc",
        "nonce": "0x1cd",
        "chainId": "0xab5"
      },
      "additionalContracts": [],
      "isFixedGasLimit": false
    },
    {
      "hash": "0x94328d11934d3951f8397d24897ebbe087fd21424920341c79ff5473d59b8674",
      "transactionType": "CALL",
      "contractName": null,
      "contractAddress": "0xe28ad1258cf2b0fc27da6ff4a586825bcb794cc5",
      "function": "unpause()",
      "arguments": [],
      "transaction": {
        "from": "0x156c7ee65c5a9e6efc62ce4645b631c5617ef894",
        "to": "0xe28ad1258cf2b0fc27da6ff4a586825bcb794cc5",
        "value": "0x0",
        "input": "0x3f4ba83a",
        "nonce": "0x1ce",
        "chainId": "0xab5"
      },
      "additionalContracts": [],
      "isFixedGasLimit": false
    },
    {
      "hash": "0x5b012e75caf9403c6dba0ab13f62aeefb10b504c3e2b2d99f83ff88ba121408d",
      "transactionType": "CALL",
      "contractName": null,
      "contractAddress": "0xa235d76f89d89187048b2abb41cf5ad9c746b18a",
      "function": "setThreshold(uint256)",
      "arguments": [
        "10000000000000"
      ],
      "transaction": {
        "from": "0x156c7ee65c5a9e6efc62ce4645b631c5617ef894",
        "to": "0xa235d76f89d89187048b2abb41cf5ad9c746b18a",
        "value": "0x0",
        "input": "0x960bfe04000000000000000000000000000000000000000000000000000009184e72a000",
        "nonce": "0x1cf",
        "chainId": "0xab5"
      },
      "additionalContracts": [],
      "isFixedGasLimit": false
    },
    {
      "hash": "0xbb122c8a5c99bcbf0191f4052fffb5c21fd0d124cc41198826019ccf1a554ff4",
      "transactionType": "CALL",
      "contractName": null,
      "contractAddress": "0xa235d76f89d89187048b2abb41cf5ad9c746b18a",
      "function": "setUseAmount(uint256)",
      "arguments": [
        "10000000000000"
      ],
      "transaction": {
        "from": "0x156c7ee65c5a9e6efc62ce4645b631c5617ef894",
        "to": "0xa235d76f89d89187048b2abb41cf5ad9c746b18a",
        "value": "0x0",
        "input": "0xdfe1ba7c000000000000000000000000000000000000000000000000000009184e72a000",
        "nonce": "0x1d0",
        "chainId": "0xab5"
      },
      "additionalContracts": [],
      "isFixedGasLimit": false
    },
    {
      "hash": "0x4324fc26844860bd63e4e5558955a1fd7037592b16d4f89cdc016843e4942e1c",
      "transactionType": "CALL",
      "contractName": null,
      "contractAddress": "0xe426b4a057f0d05c907788f76d42bad51023fe6b",
      "function": "setBuybackThreshold(uint256)",
      "arguments": [
        "1000000000000"
      ],
      "transaction": {
        "from": "0x156c7ee65c5a9e6efc62ce4645b631c5617ef894",
        "to": "0xe426b4a057f0d05c907788f76d42bad51023fe6b",
        "value": "0x0",
        "input": "0x5a0ce7c1000000000000000000000000000000000000000000000000000000e8d4a51000",
        "nonce": "0x1d1",
        "chainId": "0xab5"
      },
      "additionalContracts": [],
      "isFixedGasLimit": false
    }
  ],
  "receipts": [
    {
      "status": "0x1",
      "cumulativeGasUsed": "0x0",
      "logs": [
        {
          "address": "0x000000000000000000000000000000000000800a",
          "topics": [
            "0xddf252ad1be2c89b69c2b068fc378daa952ba7f163c4a11628f55a4df523b3ef",
            "0x000000000000000000000000156c7ee65c5a9e6efc62ce4645b631c5617ef894",
            "0x0000000000000000000000000000000000000000000000000000000000008001"
          ],
          "data": "0x000000000000000000000000000000000000000000000000000018e3e6dbb99f",
          "blockHash": "0xa320046d9adb891ec594a7335e4c9e7064ccb9e8ba7f7ea0efae7aefb0b4a96e",
          "blockNumber": "0x13efd1e",
          "blockTimestamp": "0x68e78f01",
          "transactionHash": "0x48065bd3c1957a46b055398b4e4bf4c250f27c10d08d12dae2b83b7c75a1dbd9",
          "transactionIndex": "0x1",
          "logIndex": "0x8",
          "removed": false
        },
        {
          "address": "0x000000000000000000000000000000000000800a",
          "topics": [
            "0xddf252ad1be2c89b69c2b068fc378daa952ba7f163c4a11628f55a4df523b3ef",
            "0x0000000000000000000000000000000000000000000000000000000000008001",
            "0x000000000000000000000000156c7ee65c5a9e6efc62ce4645b631c5617ef894"
          ],
          "data": "0x00000000000000000000000000000000000000000000000000000c71f3702b6f",
          "blockHash": "0xa320046d9adb891ec594a7335e4c9e7064ccb9e8ba7f7ea0efae7aefb0b4a96e",
          "blockNumber": "0x13efd1e",
          "blockTimestamp": "0x68e78f01",
          "transactionHash": "0x48065bd3c1957a46b055398b4e4bf4c250f27c10d08d12dae2b83b7c75a1dbd9",
          "transactionIndex": "0x1",
          "logIndex": "0x9",
          "removed": false
        },
        {
          "address": "0xa235d76f89d89187048b2abb41cf5ad9c746b18a",
          "topics": [
            "0xe4cec16b1a7e6b7979e923da619a8b1e5fd0f0fb6e5c1cf647f350430ee61ca9",
            "0x000000000000000000000000156c7ee65c5a9e6efc62ce4645b631c5617ef894",
            "0x000000000000000000000000e28ad1258cf2b0fc27da6ff4a586825bcb794cc5"
          ],
          "data": "0x",
          "blockHash": "0xa320046d9adb891ec594a7335e4c9e7064ccb9e8ba7f7ea0efae7aefb0b4a96e",
          "blockNumber": "0x13efd1e",
          "blockTimestamp": "0x68e78f01",
          "transactionHash": "0x48065bd3c1957a46b055398b4e4bf4c250f27c10d08d12dae2b83b7c75a1dbd9",
          "transactionIndex": "0x1",
          "logIndex": "0xa",
          "removed": false
        },
        {
          "address": "0x000000000000000000000000000000000000800a",
          "topics": [
            "0xddf252ad1be2c89b69c2b068fc378daa952ba7f163c4a11628f55a4df523b3ef",
            "0x0000000000000000000000000000000000000000000000000000000000008001",
            "0x000000000000000000000000156c7ee65c5a9e6efc62ce4645b631c5617ef894"
          ],
          "data": "0x0000000000000000000000000000000000000000000000000000064c6dec8be0",
          "blockHash": "0xa320046d9adb891ec594a7335e4c9e7064ccb9e8ba7f7ea0efae7aefb0b4a96e",
          "blockNumber": "0x13efd1e",
          "blockTimestamp": "0x68e78f01",
          "transactionHash": "0x48065bd3c1957a46b055398b4e4bf4c250f27c10d08d12dae2b83b7c75a1dbd9",
          "transactionIndex": "0x1",
          "logIndex": "0xb",
          "removed": false
        }
      ],
      "logsBloom": "0x00000001000400100000000000000000000000000000000000000000000000000000000000000000000000000000000000000000000000000000000000000000000000000000040000000048000000000000000000000000000000000000080000800000000000000000000000000000000000000000000000000010000000000000000000000000000004000000000000840000000000000000000000040000000000000000100000000000000000000000000000400000000000020000000000000002008000000000800000800000000000000000000000000000000000000000000000000000000000000001000000000000000000000000000000000000",
      "type": "0x2",
      "transactionHash": "0x48065bd3c1957a46b055398b4e4bf4c250f27c10d08d12dae2b83b7c75a1dbd9",
      "transactionIndex": "0x1",
      "blockHash": "0xa320046d9adb891ec594a7335e4c9e7064ccb9e8ba7f7ea0efae7aefb0b4a96e",
      "blockNumber": "0x13efd1e",
      "gasUsed": "0x24769",
      "effectiveGasPrice": "0x2b275d0",
      "from": "0x156c7ee65c5a9e6efc62ce4645b631c5617ef894",
      "to": "0xa235d76f89d89187048b2abb41cf5ad9c746b18a",
      "contractAddress": null,
      "l1BatchNumber": null,
      "l1BatchTxIndex": null,
      "l2ToL1Logs": []
    },
    {
      "status": "0x1",
      "cumulativeGasUsed": "0x0",
      "logs": [
        {
          "address": "0x000000000000000000000000000000000000800a",
          "topics": [
            "0xddf252ad1be2c89b69c2b068fc378daa952ba7f163c4a11628f55a4df523b3ef",
            "0x000000000000000000000000156c7ee65c5a9e6efc62ce4645b631c5617ef894",
            "0x0000000000000000000000000000000000000000000000000000000000008001"
          ],
          "data": "0x0000000000000000000000000000000000000000000000000000672dcfc91eb0",
          "blockHash": "0x3ae0b7ea5586fc79e01093e6bf424d81037e94570a6ff2220e58fac668a949c5",
          "blockNumber": "0x13efd20",
          "blockTimestamp": "0x68e78f04",
          "transactionHash": "0xf728f08edefc10eecd32b79d8284a55a928bc1b8e5c597909eae2be686c6b521",
          "transactionIndex": "0x0",
          "logIndex": "0x0",
          "removed": false
        },
        {
          "address": "0x000000000000000000000000000000000000800a",
          "topics": [
            "0xddf252ad1be2c89b69c2b068fc378daa952ba7f163c4a11628f55a4df523b3ef",
            "0x0000000000000000000000000000000000000000000000000000000000008001",
            "0x000000000000000000000000156c7ee65c5a9e6efc62ce4645b631c5617ef894"
          ],
          "data": "0x00000000000000000000000000000000000000000000000000003396e7ee1fb0",
          "blockHash": "0x3ae0b7ea5586fc79e01093e6bf424d81037e94570a6ff2220e58fac668a949c5",
          "blockNumber": "0x13efd20",
          "blockTimestamp": "0x68e78f04",
          "transactionHash": "0xf728f08edefc10eecd32b79d8284a55a928bc1b8e5c597909eae2be686c6b521",
          "transactionIndex": "0x0",
          "logIndex": "0x1",
          "removed": false
        },
        {
          "address": "0xcceff0ba646de3e0471acbb68c575dd81b76449d",
          "topics": [
            "0x2d4c6aa48812a0ea09474a961613c1a3ae652d39a1580cb1ac46ff277e6d385d",
            "0x000000000000000000000000156c7ee65c5a9e6efc62ce4645b631c5617ef894",
            "0x000000000000000000000000a235d76f89d89187048b2abb41cf5ad9c746b18a",
            "0x000000000000000000000000e426b4a057f0d05c907788f76d42bad51023fe6b"
          ],
          "data": "0x",
          "blockHash": "0x3ae0b7ea5586fc79e01093e6bf424d81037e94570a6ff2220e58fac668a949c5",
          "blockNumber": "0x13efd20",
          "blockTimestamp": "0x68e78f04",
          "transactionHash": "0xf728f08edefc10eecd32b79d8284a55a928bc1b8e5c597909eae2be686c6b521",
          "transactionIndex": "0x0",
          "logIndex": "0x2",
          "removed": false
        },
        {
          "address": "0x000000000000000000000000000000000000800a",
          "topics": [
            "0xddf252ad1be2c89b69c2b068fc378daa952ba7f163c4a11628f55a4df523b3ef",
            "0x0000000000000000000000000000000000000000000000000000000000008001",
            "0x000000000000000000000000156c7ee65c5a9e6efc62ce4645b631c5617ef894"
          ],
          "data": "0x00000000000000000000000000000000000000000000000000002873529ef820",
          "blockHash": "0x3ae0b7ea5586fc79e01093e6bf424d81037e94570a6ff2220e58fac668a949c5",
          "blockNumber": "0x13efd20",
          "blockTimestamp": "0x68e78f04",
          "transactionHash": "0xf728f08edefc10eecd32b79d8284a55a928bc1b8e5c597909eae2be686c6b521",
          "transactionIndex": "0x0",
          "logIndex": "0x3",
          "removed": false
        }
      ],
      "logsBloom": "0x00000000000400000000000000004000000000000000000000000000000000000000000000000000000000000008000000000000000000000000200000000000000000400000040000000008000000000000000100000000000000000000080000000000000000000000000000000000000000000000000000000010000040000001000004000000000004000000000000000000000000000000800000000000000000000000100000000000000000000000000000400000000000020000000000200002008000000000000000800000000000000000000000000000000000000000000000000000000000000800000000008000000000000000000000000000",
      "type": "0x2",
      "transactionHash": "0xf728f08edefc10eecd32b79d8284a55a928bc1b8e5c597909eae2be686c6b521",
      "transactionIndex": "0x0",
      "blockHash": "0x3ae0b7ea5586fc79e01093e6bf424d81037e94570a6ff2220e58fac668a949c5",
      "blockNumber": "0x13efd20",
      "gasUsed": "0x42146",
      "effectiveGasPrice": "0x2b275d0",
      "from": "0x156c7ee65c5a9e6efc62ce4645b631c5617ef894",
      "to": "0xcceff0ba646de3e0471acbb68c575dd81b76449d",
      "contractAddress": null,
      "l1BatchNumber": null,
      "l1BatchTxIndex": null,
      "l2ToL1Logs": []
    },
    {
      "status": "0x1",
      "cumulativeGasUsed": "0x0",
      "logs": [
        {
          "address": "0x000000000000000000000000000000000000800a",
          "topics": [
            "0xddf252ad1be2c89b69c2b068fc378daa952ba7f163c4a11628f55a4df523b3ef",
            "0x000000000000000000000000156c7ee65c5a9e6efc62ce4645b631c5617ef894",
            "0x0000000000000000000000000000000000000000000000000000000000008001"
          ],
          "data": "0x000000000000000000000000000000000000000000000000000018e3e6dbb99f",
          "blockHash": "0x447d11c4dbba6f3c2081021b631427ec45d80ead2830095820eb2aa611092e0f",
          "blockNumber": "0x13efd22",
          "blockTimestamp": "0x68e78f06",
          "transactionHash": "0x50b51bad01a56c362bfbd0543138c1a582baef5841128668006d7c88ed175e2e",
          "transactionIndex": "0x4",
          "logIndex": "0x1e",
          "removed": false
        },
        {
          "address": "0x000000000000000000000000000000000000800a",
          "topics": [
            "0xddf252ad1be2c89b69c2b068fc378daa952ba7f163c4a11628f55a4df523b3ef",
            "0x0000000000000000000000000000000000000000000000000000000000008001",
            "0x000000000000000000000000156c7ee65c5a9e6efc62ce4645b631c5617ef894"
          ],
          "data": "0x00000000000000000000000000000000000000000000000000000c71f3702b6f",
          "blockHash": "0x447d11c4dbba6f3c2081021b631427ec45d80ead2830095820eb2aa611092e0f",
          "blockNumber": "0x13efd22",
          "blockTimestamp": "0x68e78f06",
          "transactionHash": "0x50b51bad01a56c362bfbd0543138c1a582baef5841128668006d7c88ed175e2e",
          "transactionIndex": "0x4",
          "logIndex": "0x1f",
          "removed": false
        },
        {
          "address": "0xe426b4a057f0d05c907788f76d42bad51023fe6b",
          "topics": [
            "0xa21f5a46e242c2a2358c1aa7c5b5f64cfbc323eae10011fa70787e15c25f7866",
            "0x000000000000000000000000156c7ee65c5a9e6efc62ce4645b631c5617ef894",
            "0x000000000000000000000000e28ad1258cf2b0fc27da6ff4a586825bcb794cc5"
          ],
          "data": "0x",
          "blockHash": "0x447d11c4dbba6f3c2081021b631427ec45d80ead2830095820eb2aa611092e0f",
          "blockNumber": "0x13efd22",
          "blockTimestamp": "0x68e78f06",
          "transactionHash": "0x50b51bad01a56c362bfbd0543138c1a582baef5841128668006d7c88ed175e2e",
          "transactionIndex": "0x4",
          "logIndex": "0x20",
          "removed": false
        },
        {
          "address": "0x000000000000000000000000000000000000800a",
          "topics": [
            "0xddf252ad1be2c89b69c2b068fc378daa952ba7f163c4a11628f55a4df523b3ef",
            "0x0000000000000000000000000000000000000000000000000000000000008001",
            "0x000000000000000000000000156c7ee65c5a9e6efc62ce4645b631c5617ef894"
          ],
          "data": "0x000000000000000000000000000000000000000000000000000006bf8527d3a0",
          "blockHash": "0x447d11c4dbba6f3c2081021b631427ec45d80ead2830095820eb2aa611092e0f",
          "blockNumber": "0x13efd22",
          "blockTimestamp": "0x68e78f06",
          "transactionHash": "0x50b51bad01a56c362bfbd0543138c1a582baef5841128668006d7c88ed175e2e",
          "transactionIndex": "0x4",
          "logIndex": "0x21",
          "removed": false
        }
      ],
      "logsBloom": "0x00000000000400100000000000000000000000000000000000000000000000800000000000000000000000000000000000000000000000000000000000000000000000000000040000000048000000000000000000000000000000000000080000000000000000000000000800000000000000000000000000000010000000000000000100000000000004000000000000000000000000000000000000000000000000000000100000080000000000000000000000400000020000020000000000000002008000000000800000800000000000000000000000000000000000000000000000000000000000000000000000000000000000000000000000000000",
      "type": "0x2",
      "transactionHash": "0x50b51bad01a56c362bfbd0543138c1a582baef5841128668006d7c88ed175e2e",
      "transactionIndex": "0x4",
      "blockHash": "0x447d11c4dbba6f3c2081021b631427ec45d80ead2830095820eb2aa611092e0f",
      "blockNumber": "0x13efd22",
      "gasUsed": "0x21cbd",
      "effectiveGasPrice": "0x2b275d0",
      "from": "0x156c7ee65c5a9e6efc62ce4645b631c5617ef894",
      "to": "0xe426b4a057f0d05c907788f76d42bad51023fe6b",
      "contractAddress": null,
      "l1BatchNumber": null,
      "l1BatchTxIndex": null,
      "l2ToL1Logs": []
    },
    {
      "status": "0x1",
      "cumulativeGasUsed": "0x0",
      "logs": [
        {
          "address": "0x000000000000000000000000000000000000800a",
          "topics": [
            "0xddf252ad1be2c89b69c2b068fc378daa952ba7f163c4a11628f55a4df523b3ef",
            "0x000000000000000000000000156c7ee65c5a9e6efc62ce4645b631c5617ef894",
            "0x0000000000000000000000000000000000000000000000000000000000008001"
          ],
          "data": "0x000000000000000000000000000000000000000000000000000023c48aa9a019",
          "blockHash": "0x935f4f00fe4f75b6711c7d9293951d960f36e24101eec61cc160ce99da03bb91",
          "blockNumber": "0x13efd23",
          "blockTimestamp": "0x68e78f07",
          "transactionHash": "0xa0a8a7abd6ec32a6488a4f452ea08064fe5ccb19b83a4ae57e6ab6fb57b3f842",
          "transactionIndex": "0x3",
          "logIndex": "0x13",
          "removed": false
        },
        {
          "address": "0x000000000000000000000000000000000000800a",
          "topics": [
            "0xddf252ad1be2c89b69c2b068fc378daa952ba7f163c4a11628f55a4df523b3ef",
            "0x0000000000000000000000000000000000000000000000000000000000008001",
            "0x000000000000000000000000156c7ee65c5a9e6efc62ce4645b631c5617ef894"
          ],
          "data": "0x000000000000000000000000000000000000000000000000000011e2455820c9",
          "blockHash": "0x935f4f00fe4f75b6711c7d9293951d960f36e24101eec61cc160ce99da03bb91",
          "blockNumber": "0x13efd23",
          "blockTimestamp": "0x68e78f07",
          "transactionHash": "0xa0a8a7abd6ec32a6488a4f452ea08064fe5ccb19b83a4ae57e6ab6fb57b3f842",
          "transactionIndex": "0x3",
          "logIndex": "0x14",
          "removed": false
        },
        {
          "address": "0x000000000000000000000000000000000000800a",
          "topics": [
            "0xddf252ad1be2c89b69c2b068fc378daa952ba7f163c4a11628f55a4df523b3ef",
            "0x0000000000000000000000000000000000000000000000000000000000008001",
            "0x000000000000000000000000156c7ee65c5a9e6efc62ce4645b631c5617ef894"
          ],
          "data": "0x00000000000000000000000000000000000000000000000000000bfb41c6e290",
          "blockHash": "0x935f4f00fe4f75b6711c7d9293951d960f36e24101eec61cc160ce99da03bb91",
          "blockNumber": "0x13efd23",
          "blockTimestamp": "0x68e78f07",
          "transactionHash": "0xa0a8a7abd6ec32a6488a4f452ea08064fe5ccb19b83a4ae57e6ab6fb57b3f842",
          "transactionIndex": "0x3",
          "logIndex": "0x15",
          "removed": false
        }
      ],
      "logsBloom": "0x00000000000400000000000000000000000000000000000000000000000000000000000000000000000000000000000000000000000000000000000000000000000000000000040000000008000000000000000000000000000000000000080000000000000000000000000000000000000000000000000000000010000000000000000000000000000004000000000000000000000000000000000000000000000000000000100000000000000000000000000000400000000000020000000000000002008000000000000000800000000000000000000000000000000000000000000000000000000000000000000000000000000000000000000000000000",
      "type": "0x2",
      "transactionHash": "0xa0a8a7abd6ec32a6488a4f452ea08064fe5ccb19b83a4ae57e6ab6fb57b3f842",
      "transactionIndex": "0x3",
      "blockHash": "0x935f4f00fe4f75b6711c7d9293951d960f36e24101eec61cc160ce99da03bb91",
      "blockNumber": "0x13efd23",
      "gasUsed": "0x2303c",
      "effectiveGasPrice": "0x2b275d0",
      "from": "0x156c7ee65c5a9e6efc62ce4645b631c5617ef894",
      "to": "0x7930f06a12416ad57faf5d32f6a742e641313e76",
      "contractAddress": null,
      "l1BatchNumber": null,
      "l1BatchTxIndex": null,
      "l2ToL1Logs": []
    },
    {
      "status": "0x1",
      "cumulativeGasUsed": "0x0",
      "logs": [
        {
          "address": "0x000000000000000000000000000000000000800a",
          "topics": [
            "0xddf252ad1be2c89b69c2b068fc378daa952ba7f163c4a11628f55a4df523b3ef",
            "0x000000000000000000000000156c7ee65c5a9e6efc62ce4645b631c5617ef894",
            "0x0000000000000000000000000000000000000000000000000000000000008001"
          ],
          "data": "0x0000000000000000000000000000000000000000000000000000472a73e19ec7",
          "blockHash": "0xa9ea0c3ed578028252a559dffd0ac174d2d8919f7bc484c425ab715ac07c7c03",
          "blockNumber": "0x13efd25",
          "blockTimestamp": "0x68e78f0a",
          "transactionHash": "0xbe07b2ffd769612992f05c3070fe8fb61f2eeba346168ec37f2dbc1f84e0d293",
          "transactionIndex": "0x1",
          "logIndex": "0x4",
          "removed": false
        },
        {
          "address": "0x000000000000000000000000000000000000800a",
          "topics": [
            "0xddf252ad1be2c89b69c2b068fc378daa952ba7f163c4a11628f55a4df523b3ef",
            "0x0000000000000000000000000000000000000000000000000000000000008001",
            "0x000000000000000000000000156c7ee65c5a9e6efc62ce4645b631c5617ef894"
          ],
          "data": "0x0000000000000000000000000000000000000000000000000000239539f76817",
          "blockHash": "0xa9ea0c3ed578028252a559dffd0ac174d2d8919f7bc484c425ab715ac07c7c03",
          "blockNumber": "0x13efd25",
          "blockTimestamp": "0x68e78f0a",
          "transactionHash": "0xbe07b2ffd769612992f05c3070fe8fb61f2eeba346168ec37f2dbc1f84e0d293",
          "transactionIndex": "0x1",
          "logIndex": "0x5",
          "removed": false
        },
        {
          "address": "0x7930f06a12416ad57faf5d32f6a742e641313e76",
          "topics": [
            "0x41787f1277821474072e18df95f0bd9ed9f117003aa97732ebbd737225b32b02",
            "0x0000000000000000000000000000000000000000000000000000000000000001"
          ],
          "data": "0x0000000000000000000000000000000000000000000000000000000068e78f0a",
          "blockHash": "0xa9ea0c3ed578028252a559dffd0ac174d2d8919f7bc484c425ab715ac07c7c03",
          "blockNumber": "0x13efd25",
          "blockTimestamp": "0x68e78f0a",
          "transactionHash": "0xbe07b2ffd769612992f05c3070fe8fb61f2eeba346168ec37f2dbc1f84e0d293",
          "transactionIndex": "0x1",
          "logIndex": "0x6",
          "removed": false
        },
        {
          "address": "0x000000000000000000000000000000000000800a",
          "topics": [
            "0xddf252ad1be2c89b69c2b068fc378daa952ba7f163c4a11628f55a4df523b3ef",
            "0x0000000000000000000000000000000000000000000000000000000000008001",
            "0x000000000000000000000000156c7ee65c5a9e6efc62ce4645b631c5617ef894"
          ],
          "data": "0x00000000000000000000000000000000000000000000000000001cc5cc1f7a30",
          "blockHash": "0xa9ea0c3ed578028252a559dffd0ac174d2d8919f7bc484c425ab715ac07c7c03",
          "blockNumber": "0x13efd25",
          "blockTimestamp": "0x68e78f0a",
          "transactionHash": "0xbe07b2ffd769612992f05c3070fe8fb61f2eeba346168ec37f2dbc1f84e0d293",
          "transactionIndex": "0x1",
          "logIndex": "0x7",
          "removed": false
        }
      ],
      "logsBloom": "0x00000000000400000000400000000000000000000000000000000000000000000000000000000000000000000000000000000000000000000000000000040000000000000000040000000008000000000000000000040000000000000000080000000000000000000000000010000000000000000000000000000010000000000000000000000000000004000000000000000000000000000000000000000000000000000000100000000080000000000000000000400000000000020000000100000002008000000000000000800000000000000000000000000000000040000100000000000000000000000000800000000000000000000000000000000000",
      "type": "0x2",
      "transactionHash": "0xbe07b2ffd769612992f05c3070fe8fb61f2eeba346168ec37f2dbc1f84e0d293",
      "transactionIndex": "0x1",
      "blockHash": "0xa9ea0c3ed578028252a559dffd0ac174d2d8919f7bc484c425ab715ac07c7c03",
      "blockNumber": "0x13efd25",
      "gasUsed": "0x28668",
      "effectiveGasPrice": "0x2b275d0",
      "from": "0x156c7ee65c5a9e6efc62ce4645b631c5617ef894",
      "to": "0x7930f06a12416ad57faf5d32f6a742e641313e76",
      "contractAddress": null,
      "l1BatchNumber": null,
      "l1BatchTxIndex": null,
      "l2ToL1Logs": []
    },
    {
      "status": "0x1",
      "cumulativeGasUsed": "0x0",
      "logs": [
        {
          "address": "0x000000000000000000000000000000000000800a",
          "topics": [
            "0xddf252ad1be2c89b69c2b068fc378daa952ba7f163c4a11628f55a4df523b3ef",
            "0x000000000000000000000000156c7ee65c5a9e6efc62ce4645b631c5617ef894",
            "0x0000000000000000000000000000000000000000000000000000000000008001"
          ],
          "data": "0x00000000000000000000000000000000000000000000000000002477d6158676",
          "blockHash": "0x531c6f2deab78eed29ac903dfa8482262ef3e8dde0f4cc807804865e9d496e37",
          "blockNumber": "0x13efd26",
          "blockTimestamp": "0x68e78f0b",
          "transactionHash": "0x0ad3142cc0b80bdd683eca1584e413cd4d2acd601b020eb1c352dfcf4ec19c5d",
          "transactionIndex": "0x7",
          "logIndex": "0x27",
          "removed": false
        },
        {
          "address": "0x000000000000000000000000000000000000800a",
          "topics": [
            "0xddf252ad1be2c89b69c2b068fc378daa952ba7f163c4a11628f55a4df523b3ef",
            "0x0000000000000000000000000000000000000000000000000000000000008001",
            "0x000000000000000000000000156c7ee65c5a9e6efc62ce4645b631c5617ef894"
          ],
          "data": "0x0000000000000000000000000000000000000000000000000000123beb0e2496",
          "blockHash": "0x531c6f2deab78eed29ac903dfa8482262ef3e8dde0f4cc807804865e9d496e37",
          "blockNumber": "0x13efd26",
          "blockTimestamp": "0x68e78f0b",
          "transactionHash": "0x0ad3142cc0b80bdd683eca1584e413cd4d2acd601b020eb1c352dfcf4ec19c5d",
          "transactionIndex": "0x7",
          "logIndex": "0x28",
          "removed": false
        },
        {
          "address": "0xcceff0ba646de3e0471acbb68c575dd81b76449d",
          "topics": [
            "0xc258faa9a17ddfdf4130b4acff63a289202e7d5f9e42f366add65368575486bc",
            "0x0000000000000000000000007c32347c7aed1addb41426563aed3615961001cc"
          ],
          "data": "0x",
          "blockHash": "0x531c6f2deab78eed29ac903dfa8482262ef3e8dde0f4cc807804865e9d496e37",
          "blockNumber": "0x13efd26",
          "blockTimestamp": "0x68e78f0b",
          "transactionHash": "0x0ad3142cc0b80bdd683eca1584e413cd4d2acd601b020eb1c352dfcf4ec19c5d",
          "transactionIndex": "0x7",
          "logIndex": "0x29",
          "removed": false
        },
        {
          "address": "0x000000000000000000000000000000000000800a",
          "topics": [
            "0xddf252ad1be2c89b69c2b068fc378daa952ba7f163c4a11628f55a4df523b3ef",
            "0x0000000000000000000000000000000000000000000000000000000000008001",
            "0x000000000000000000000000156c7ee65c5a9e6efc62ce4645b631c5617ef894"
          ],
          "data": "0x00000000000000000000000000000000000000000000000000000c941e260020",
          "blockHash": "0x531c6f2deab78eed29ac903dfa8482262ef3e8dde0f4cc807804865e9d496e37",
          "blockNumber": "0x13efd26",
          "blockTimestamp": "0x68e78f0b",
          "transactionHash": "0x0ad3142cc0b80bdd683eca1584e413cd4d2acd601b020eb1c352dfcf4ec19c5d",
          "transactionIndex": "0x7",
          "logIndex": "0x2a",
          "removed": false
        }
      ],
      "logsBloom": "0x00000000000400000000000000000000000000000000000000400000000000000000000000000000000000000000000000000000000000000000000000000000000000000000040000000008000000000010800000000100000000000000080000000000000000000000000000000000000000000000000000000010000040000000000000000000000004000000000000000000000000000000800000000000000000000001100000000000000000000000000000400000000000020000000000000002008000000000000000800000000000000000000000000000000000000000000000000000000000000800000000000000000000000002000000000000",
      "type": "0x2",
      "transactionHash": "0x0ad3142cc0b80bdd683eca1584e413cd4d2acd601b020eb1c352dfcf4ec19c5d",
      "transactionIndex": "0x7",
      "blockHash": "0x531c6f2deab78eed29ac903dfa8482262ef3e8dde0f4cc807804865e9d496e37",
      "blockNumber": "0x13efd26",
      "gasUsed": "0x218cc",
      "effectiveGasPrice": "0x2b275d0",
      "from": "0x156c7ee65c5a9e6efc62ce4645b631c5617ef894",
      "to": "0xcceff0ba646de3e0471acbb68c575dd81b76449d",
      "contractAddress": null,
      "l1BatchNumber": null,
      "l1BatchTxIndex": null,
      "l2ToL1Logs": []
    },
    {
      "status": "0x1",
      "cumulativeGasUsed": "0x0",
      "logs": [
        {
          "address": "0x000000000000000000000000000000000000800a",
          "topics": [
            "0xddf252ad1be2c89b69c2b068fc378daa952ba7f163c4a11628f55a4df523b3ef",
            "0x000000000000000000000000156c7ee65c5a9e6efc62ce4645b631c5617ef894",
            "0x0000000000000000000000000000000000000000000000000000000000008001"
          ],
          "data": "0x00000000000000000000000000000000000000000000000000002477d6158676",
          "blockHash": "0xffe155ceef3a59eb7929435193bf982ef538460e057c87526eda2cad3b0ec086",
          "blockNumber": "0x13efd28",
          "blockTimestamp": "0x68e78f0d",
          "transactionHash": "0xff9ecec0c4f73c948223ff49ea92e6e21fbe3d9ee24694018aafdbffe674a15c",
          "transactionIndex": "0x3",
          "logIndex": "0x13",
          "removed": false
        },
        {
          "address": "0x000000000000000000000000000000000000800a",
          "topics": [
            "0xddf252ad1be2c89b69c2b068fc378daa952ba7f163c4a11628f55a4df523b3ef",
            "0x0000000000000000000000000000000000000000000000000000000000008001",
            "0x000000000000000000000000156c7ee65c5a9e6efc62ce4645b631c5617ef894"
          ],
          "data": "0x0000000000000000000000000000000000000000000000000000123beb0e2496",
          "blockHash": "0xffe155ceef3a59eb7929435193bf982ef538460e057c87526eda2cad3b0ec086",
          "blockNumber": "0x13efd28",
          "blockTimestamp": "0x68e78f0d",
          "transactionHash": "0xff9ecec0c4f73c948223ff49ea92e6e21fbe3d9ee24694018aafdbffe674a15c",
          "transactionIndex": "0x3",
          "logIndex": "0x14",
          "removed": false
        },
        {
          "address": "0xe28ad1258cf2b0fc27da6ff4a586825bcb794cc5",
          "topics": [
            "0xc258faa9a17ddfdf4130b4acff63a289202e7d5f9e42f366add65368575486bc",
            "0x0000000000000000000000007c32347c7aed1addb41426563aed3615961001cc"
          ],
          "data": "0x",
          "blockHash": "0xffe155ceef3a59eb7929435193bf982ef538460e057c87526eda2cad3b0ec086",
          "blockNumber": "0x13efd28",
          "blockTimestamp": "0x68e78f0d",
          "transactionHash": "0xff9ecec0c4f73c948223ff49ea92e6e21fbe3d9ee24694018aafdbffe674a15c",
          "transactionIndex": "0x3",
          "logIndex": "0x15",
          "removed": false
        },
        {
          "address": "0x000000000000000000000000000000000000800a",
          "topics": [
            "0xddf252ad1be2c89b69c2b068fc378daa952ba7f163c4a11628f55a4df523b3ef",
            "0x0000000000000000000000000000000000000000000000000000000000008001",
            "0x000000000000000000000000156c7ee65c5a9e6efc62ce4645b631c5617ef894"
          ],
          "data": "0x00000000000000000000000000000000000000000000000000000c60254dcf10",
          "blockHash": "0xffe155ceef3a59eb7929435193bf982ef538460e057c87526eda2cad3b0ec086",
          "blockNumber": "0x13efd28",
          "blockTimestamp": "0x68e78f0d",
          "transactionHash": "0xff9ecec0c4f73c948223ff49ea92e6e21fbe3d9ee24694018aafdbffe674a15c",
          "transactionIndex": "0x3",
          "logIndex": "0x16",
          "removed": false
        }
      ],
      "logsBloom": "0x00000000000400000000000000000000400000000000000000400000000000000000000000000000000000000000000000000000000000000000000000000000000000000000040000000008000000000010800000000100000000000000080000000000000000000000000000000000000000000000000000000010000000000000000000000000000004000000000000000800000000000000000000000000000000000001100000000000000000000000000000400000000000020000000000000002008000000020000000800000000000000000000000000000000000000000000000000000000000000000000000000000000000000002000000000000",
      "type": "0x2",
      "transactionHash": "0xff9ecec0c4f73c948223ff49ea92e6e21fbe3d9ee24694018aafdbffe674a15c",
      "transactionIndex": "0x3",
      "blockHash": "0xffe155ceef3a59eb7929435193bf982ef538460e057c87526eda2cad3b0ec086",
      "blockNumber": "0x13efd28",
      "gasUsed": "0x22c11",
      "effectiveGasPrice": "0x2b275d0",
      "from": "0x156c7ee65c5a9e6efc62ce4645b631c5617ef894",
      "to": "0xe28ad1258cf2b0fc27da6ff4a586825bcb794cc5",
      "contractAddress": null,
      "l1BatchNumber": null,
      "l1BatchTxIndex": null,
      "l2ToL1Logs": []
    },
    {
      "status": "0x1",
      "cumulativeGasUsed": "0x0",
      "logs": [
        {
          "address": "0x000000000000000000000000000000000000800a",
          "topics": [
            "0xddf252ad1be2c89b69c2b068fc378daa952ba7f163c4a11628f55a4df523b3ef",
            "0x000000000000000000000000156c7ee65c5a9e6efc62ce4645b631c5617ef894",
            "0x0000000000000000000000000000000000000000000000000000000000008001"
          ],
          "data": "0x00000000000000000000000000000000000000000000000000001991c7f7135b",
          "blockHash": "0x030f2a3c45a05cfa57bf96a8136eaae31d6ff46aa1d170df8fab5eeb4e913fbf",
          "blockNumber": "0x13efd29",
          "blockTimestamp": "0x68e78f0e",
          "transactionHash": "0x94328d11934d3951f8397d24897ebbe087fd21424920341c79ff5473d59b8674",
          "transactionIndex": "0x3",
          "logIndex": "0x17",
          "removed": false
        },
        {
          "address": "0x000000000000000000000000000000000000800a",
          "topics": [
            "0xddf252ad1be2c89b69c2b068fc378daa952ba7f163c4a11628f55a4df523b3ef",
            "0x0000000000000000000000000000000000000000000000000000000000008001",
            "0x000000000000000000000000156c7ee65c5a9e6efc62ce4645b631c5617ef894"
          ],
          "data": "0x00000000000000000000000000000000000000000000000000000cc8e3fde86b",
          "blockHash": "0x030f2a3c45a05cfa57bf96a8136eaae31d6ff46aa1d170df8fab5eeb4e913fbf",
          "blockNumber": "0x13efd29",
          "blockTimestamp": "0x68e78f0e",
          "transactionHash": "0x94328d11934d3951f8397d24897ebbe087fd21424920341c79ff5473d59b8674",
          "transactionIndex": "0x3",
          "logIndex": "0x18",
          "removed": false
        },
        {
          "address": "0xe28ad1258cf2b0fc27da6ff4a586825bcb794cc5",
          "topics": [
            "0x5db9ee0a495bf2e6ff9c91a7834c1ba4fdd244a5e8aa4e537bd38aeae4b073aa"
          ],
          "data": "0x000000000000000000000000156c7ee65c5a9e6efc62ce4645b631c5617ef894",
          "blockHash": "0x030f2a3c45a05cfa57bf96a8136eaae31d6ff46aa1d170df8fab5eeb4e913fbf",
          "blockNumber": "0x13efd29",
          "blockTimestamp": "0x68e78f0e",
          "transactionHash": "0x94328d11934d3951f8397d24897ebbe087fd21424920341c79ff5473d59b8674",
          "transactionIndex": "0x3",
          "logIndex": "0x19",
          "removed": false
        },
        {
          "address": "0x000000000000000000000000000000000000800a",
          "topics": [
            "0xddf252ad1be2c89b69c2b068fc378daa952ba7f163c4a11628f55a4df523b3ef",
            "0x0000000000000000000000000000000000000000000000000000000000008001",
            "0x000000000000000000000000156c7ee65c5a9e6efc62ce4645b631c5617ef894"
          ],
          "data": "0x0000000000000000000000000000000000000000000000000000074ada7009f0",
          "blockHash": "0x030f2a3c45a05cfa57bf96a8136eaae31d6ff46aa1d170df8fab5eeb4e913fbf",
          "blockNumber": "0x13efd29",
          "blockTimestamp": "0x68e78f0e",
          "transactionHash": "0x94328d11934d3951f8397d24897ebbe087fd21424920341c79ff5473d59b8674",
          "transactionIndex": "0x3",
          "logIndex": "0x1a",
          "removed": false
        }
      ],
      "logsBloom": "0x00000000000400000000000000000000400000000000000080000000000000000000000000000000000000000000000000000000000000000000000000000000000000000000040000000008000000000000000000000000000000008000080000000000000000000000000000000000000000000000000000000010000000000000000000000000000004000000000000000800000000000000000000000000000000000000100000000000000000000000000000400000000000020000000000000002008000000020000000800000000000000000000000000000000000000000000000000000000000000000000000000000000000000000000000000400",
      "type": "0x2",
      "transactionHash": "0x94328d11934d3951f8397d24897ebbe087fd21424920341c79ff5473d59b8674",
      "transactionIndex": "0x3",
      "blockHash": "0x030f2a3c45a05cfa57bf96a8136eaae31d6ff46aa1d170df8fab5eeb4e913fbf",
      "blockNumber": "0x13efd29",
      "gasUsed": "0x20950",
      "effectiveGasPrice": "0x2b275d0",
      "from": "0x156c7ee65c5a9e6efc62ce4645b631c5617ef894",
      "to": "0xe28ad1258cf2b0fc27da6ff4a586825bcb794cc5",
      "contractAddress": null,
      "l1BatchNumber": null,
      "l1BatchTxIndex": null,
      "l2ToL1Logs": []
    },
    {
      "status": "0x1",
      "cumulativeGasUsed": "0x0",
      "logs": [
        {
          "address": "0x000000000000000000000000000000000000800a",
          "topics": [
            "0xddf252ad1be2c89b69c2b068fc378daa952ba7f163c4a11628f55a4df523b3ef",
            "0x000000000000000000000000156c7ee65c5a9e6efc62ce4645b631c5617ef894",
            "0x0000000000000000000000000000000000000000000000000000000000008001"
          ],
          "data": "0x000000000000000000000000000000000000000000000000000018dff0beaf63",
          "blockHash": "0x431ce9fbada781db8515a935bcb3b9cca811bfae33cee3094a1e5e1e355f0699",
          "blockNumber": "0x13efd2a",
          "blockTimestamp": "0x68e78f0f",
          "transactionHash": "0x5b012e75caf9403c6dba0ab13f62aeefb10b504c3e2b2d99f83ff88ba121408d",
          "transactionIndex": "0x3",
          "logIndex": "0x10",
          "removed": false
        },
        {
          "address": "0x000000000000000000000000000000000000800a",
          "topics": [
            "0xddf252ad1be2c89b69c2b068fc378daa952ba7f163c4a11628f55a4df523b3ef",
            "0x0000000000000000000000000000000000000000000000000000000000008001",
            "0x000000000000000000000000156c7ee65c5a9e6efc62ce4645b631c5617ef894"
          ],
          "data": "0x00000000000000000000000000000000000000000000000000000c6ff861a5f3",
          "blockHash": "0x431ce9fbada781db8515a935bcb3b9cca811bfae33cee3094a1e5e1e355f0699",
          "blockNumber": "0x13efd2a",
          "blockTimestamp": "0x68e78f0f",
          "transactionHash": "0x5b012e75caf9403c6dba0ab13f62aeefb10b504c3e2b2d99f83ff88ba121408d",
          "transactionIndex": "0x3",
          "logIndex": "0x11",
          "removed": false
        },
        {
          "address": "0xa235d76f89d89187048b2abb41cf5ad9c746b18a",
          "topics": [
            "0xb06a54caabe58475c86c2bf9df3f2f06dd1213e9e10659c293117fe4893b274b"
          ],
          "data": "0x0000000000000000000000000000000000000000000000000de0b6b3a7640000000000000000000000000000000000000000000000000000000009184e72a000",
          "blockHash": "0x431ce9fbada781db8515a935bcb3b9cca811bfae33cee3094a1e5e1e355f0699",
          "blockNumber": "0x13efd2a",
          "blockTimestamp": "0x68e78f0f",
          "transactionHash": "0x5b012e75caf9403c6dba0ab13f62aeefb10b504c3e2b2d99f83ff88ba121408d",
          "transactionIndex": "0x3",
          "logIndex": "0x12",
          "removed": false
        },
        {
          "address": "0x000000000000000000000000000000000000800a",
          "topics": [
            "0xddf252ad1be2c89b69c2b068fc378daa952ba7f163c4a11628f55a4df523b3ef",
            "0x0000000000000000000000000000000000000000000000000000000000008001",
            "0x000000000000000000000000156c7ee65c5a9e6efc62ce4645b631c5617ef894"
          ],
          "data": "0x00000000000000000000000000000000000000000000000000000700ea1e51d0",
          "blockHash": "0x431ce9fbada781db8515a935bcb3b9cca811bfae33cee3094a1e5e1e355f0699",
          "blockNumber": "0x13efd2a",
          "blockTimestamp": "0x68e78f0f",
          "transactionHash": "0x5b012e75caf9403c6dba0ab13f62aeefb10b504c3e2b2d99f83ff88ba121408d",
          "transactionIndex": "0x3",
          "logIndex": "0x13",
          "removed": false
        }
      ],
      "logsBloom": "0x00000001000400000000000000000000000000000004000000000000000000000000000000000000000000000000000000000000000000000000000000000000000000000000040000000008000000000000000000000000000400000000080000800000000000000400000000000000000000000000000000000010000000000000000000000000000004000000000000000000000000000000000000040000000000000000100000000000000000000000000000400000000000020000000000000002008000000000000000800000000000000000000000000000000000000000000000000000000000000000000000000000000000000000000000000000",
      "type": "0x2",
      "transactionHash": "0x5b012e75caf9403c6dba0ab13f62aeefb10b504c3e2b2d99f83ff88ba121408d",
      "transactionIndex": "0x3",
      "blockHash": "0x431ce9fbada781db8515a935bcb3b9cca811bfae33cee3094a1e5e1e355f0699",
      "blockNumber": "0x13efd2a",
      "gasUsed": "0x203c2",
      "effectiveGasPrice": "0x2b275d0",
      "from": "0x156c7ee65c5a9e6efc62ce4645b631c5617ef894",
      "to": "0xa235d76f89d89187048b2abb41cf5ad9c746b18a",
      "contractAddress": null,
      "l1BatchNumber": null,
      "l1BatchTxIndex": null,
      "l2ToL1Logs": []
    },
    {
      "status": "0x1",
      "cumulativeGasUsed": "0x0",
      "logs": [
        {
          "address": "0x000000000000000000000000000000000000800a",
          "topics": [
            "0xddf252ad1be2c89b69c2b068fc378daa952ba7f163c4a11628f55a4df523b3ef",
            "0x000000000000000000000000156c7ee65c5a9e6efc62ce4645b631c5617ef894",
            "0x0000000000000000000000000000000000000000000000000000000000008001"
          ],
          "data": "0x000000000000000000000000000000000000000000000000000018dff0beaf63",
          "blockHash": "0x4f0ac29f12ed1374ac124b0d8a168bc0da7b6d4480b0e3eb67338a514d460ab2",
          "blockNumber": "0x13efd2b",
          "blockTimestamp": "0x68e78f10",
          "transactionHash": "0xbb122c8a5c99bcbf0191f4052fffb5c21fd0d124cc41198826019ccf1a554ff4",
          "transactionIndex": "0x3",
          "logIndex": "0x1f",
          "removed": false
        },
        {
          "address": "0x000000000000000000000000000000000000800a",
          "topics": [
            "0xddf252ad1be2c89b69c2b068fc378daa952ba7f163c4a11628f55a4df523b3ef",
            "0x0000000000000000000000000000000000000000000000000000000000008001",
            "0x000000000000000000000000156c7ee65c5a9e6efc62ce4645b631c5617ef894"
          ],
          "data": "0x00000000000000000000000000000000000000000000000000000c6ff861a5f3",
          "blockHash": "0x4f0ac29f12ed1374ac124b0d8a168bc0da7b6d4480b0e3eb67338a514d460ab2",
          "blockNumber": "0x13efd2b",
          "blockTimestamp": "0x68e78f10",
          "transactionHash": "0xbb122c8a5c99bcbf0191f4052fffb5c21fd0d124cc41198826019ccf1a554ff4",
          "transactionIndex": "0x3",
          "logIndex": "0x20",
          "removed": false
        },
        {
          "address": "0xa235d76f89d89187048b2abb41cf5ad9c746b18a",
          "topics": [
            "0x71fbf5c34cfc4adc3a6e97606cc9ceb1285548bc4199aebd25ab48025878a5ce"
          ],
          "data": "0x0000000000000000000000000000000000000000000000000c7d713b49da0000000000000000000000000000000000000000000000000000000009184e72a000",
          "blockHash": "0x4f0ac29f12ed1374ac124b0d8a168bc0da7b6d4480b0e3eb67338a514d460ab2",
          "blockNumber": "0x13efd2b",
          "blockTimestamp": "0x68e78f10",
          "transactionHash": "0xbb122c8a5c99bcbf0191f4052fffb5c21fd0d124cc41198826019ccf1a554ff4",
          "transactionIndex": "0x3",
          "logIndex": "0x21",
          "removed": false
        },
        {
          "address": "0x000000000000000000000000000000000000800a",
          "topics": [
            "0xddf252ad1be2c89b69c2b068fc378daa952ba7f163c4a11628f55a4df523b3ef",
            "0x0000000000000000000000000000000000000000000000000000000000008001",
            "0x000000000000000000000000156c7ee65c5a9e6efc62ce4645b631c5617ef894"
          ],
          "data": "0x000000000000000000000000000000000000000000000000000007017e75a180",
          "blockHash": "0x4f0ac29f12ed1374ac124b0d8a168bc0da7b6d4480b0e3eb67338a514d460ab2",
          "blockNumber": "0x13efd2b",
          "blockTimestamp": "0x68e78f10",
          "transactionHash": "0xbb122c8a5c99bcbf0191f4052fffb5c21fd0d124cc41198826019ccf1a554ff4",
          "transactionIndex": "0x3",
          "logIndex": "0x22",
          "removed": false
        }
      ],
      "logsBloom": "0x00000001000400000000200000000000000000000000000000000000000000000000000000000000000000000000000000000000000000000000000000000000000000000000040000000008000000000000000000000000000000000000080000800000000000000000000000000000000000000000000000000010000000000000000000000000000004000000000000000000000000000000000000040000000000000002100000000000000000000000000000400000000000020000000000000002008000000000000000800000000000000000000000000800000000000000000000000000000000000000000000000000000000000000000000000000",
      "type": "0x2",
      "transactionHash": "0xbb122c8a5c99bcbf0191f4052fffb5c21fd0d124cc41198826019ccf1a554ff4",
      "transactionIndex": "0x3",
      "blockHash": "0x4f0ac29f12ed1374ac124b0d8a168bc0da7b6d4480b0e3eb67338a514d460ab2",
      "blockNumber": "0x13efd2b",
      "gasUsed": "0x2038b",
      "effectiveGasPrice": "0x2b275d0",
      "from": "0x156c7ee65c5a9e6efc62ce4645b631c5617ef894",
      "to": "0xa235d76f89d89187048b2abb41cf5ad9c746b18a",
      "contractAddress": null,
      "l1BatchNumber": null,
      "l1BatchTxIndex": null,
      "l2ToL1Logs": []
    },
    {
      "status": "0x1",
      "cumulativeGasUsed": "0x0",
      "logs": [
        {
          "address": "0x000000000000000000000000000000000000800a",
          "topics": [
            "0xddf252ad1be2c89b69c2b068fc378daa952ba7f163c4a11628f55a4df523b3ef",
            "0x000000000000000000000000156c7ee65c5a9e6efc62ce4645b631c5617ef894",
            "0x0000000000000000000000000000000000000000000000000000000000008001"
          ],
          "data": "0x0000000000000000000000000000000000000000000000000000198d86552651",
          "blockHash": "0x1ce742f75016ba52c72e541a2ce1d694facd703282d1b2ff8092fbc064f6c8b6",
          "blockNumber": "0x13efd2c",
          "blockTimestamp": "0x68e78f12",
          "transactionHash": "0x4324fc26844860bd63e4e5558955a1fd7037592b16d4f89cdc016843e4942e1c",
          "transactionIndex": "0x4",
          "logIndex": "0x1c",
          "removed": false
        },
        {
          "address": "0x000000000000000000000000000000000000800a",
          "topics": [
            "0xddf252ad1be2c89b69c2b068fc378daa952ba7f163c4a11628f55a4df523b3ef",
            "0x0000000000000000000000000000000000000000000000000000000000008001",
            "0x000000000000000000000000156c7ee65c5a9e6efc62ce4645b631c5617ef894"
          ],
          "data": "0x00000000000000000000000000000000000000000000000000000cc6c32cf181",
          "blockHash": "0x1ce742f75016ba52c72e541a2ce1d694facd703282d1b2ff8092fbc064f6c8b6",
          "blockNumber": "0x13efd2c",
          "blockTimestamp": "0x68e78f12",
          "transactionHash": "0x4324fc26844860bd63e4e5558955a1fd7037592b16d4f89cdc016843e4942e1c",
          "transactionIndex": "0x4",
          "logIndex": "0x1d",
          "removed": false
        },
        {
          "address": "0xe426b4a057f0d05c907788f76d42bad51023fe6b",
          "topics": [
            "0x6195da745679f4fba8a4884a6243e2d1286c2f1e836d6c2b641a67a8fb1d1233"
          ],
          "data": "0x000000000000000000000000000000000000000000000000002386f26fc10000000000000000000000000000000000000000000000000000000000e8d4a51000",
          "blockHash": "0x1ce742f75016ba52c72e541a2ce1d694facd703282d1b2ff8092fbc064f6c8b6",
          "blockNumber": "0x13efd2c",
          "blockTimestamp": "0x68e78f12",
          "transactionHash": "0x4324fc26844860bd63e4e5558955a1fd7037592b16d4f89cdc016843e4942e1c",
          "transactionIndex": "0x4",
          "logIndex": "0x1e",
          "removed": false
        },
        {
          "address": "0x000000000000000000000000000000000000800a",
          "topics": [
            "0xddf252ad1be2c89b69c2b068fc378daa952ba7f163c4a11628f55a4df523b3ef",
            "0x0000000000000000000000000000000000000000000000000000000000008001",
            "0x000000000000000000000000156c7ee65c5a9e6efc62ce4645b631c5617ef894"
          ],
          "data": "0x0000000000000000000000000000000000000000000000000000072ec13eac00",
          "blockHash": "0x1ce742f75016ba52c72e541a2ce1d694facd703282d1b2ff8092fbc064f6c8b6",
          "blockNumber": "0x13efd2c",
          "blockTimestamp": "0x68e78f12",
          "transactionHash": "0x4324fc26844860bd63e4e5558955a1fd7037592b16d4f89cdc016843e4942e1c",
          "transactionIndex": "0x4",
          "logIndex": "0x1f",
          "removed": false
        }
      ],
      "logsBloom": "0x00000000000400000000000000000000000000000000000000000000000000800000000000000000000000000000000000000000000000000000000000000000000000000000040000000008000200000000000000000000000000000000080000000000000000000000000000000000000000000000000000000010000800000000000100000000000004000000000000000000000000000000000000000000000000000000100000080000000000000000000000400000000000020000000000000002008000000000000000800000000000000001000000000000000000000000000000000000000000000000000000000000000000000000000000000000",
      "type": "0x2",
      "transactionHash": "0x4324fc26844860bd63e4e5558955a1fd7037592b16d4f89cdc016843e4942e1c",
      "transactionIndex": "0x4",
      "blockHash": "0x1ce742f75016ba52c72e541a2ce1d694facd703282d1b2ff8092fbc064f6c8b6",
      "blockNumber": "0x13efd2c",
      "gasUsed": "0x212f1",
      "effectiveGasPrice": "0x2b275d0",
      "from": "0x156c7ee65c5a9e6efc62ce4645b631c5617ef894",
      "to": "0xe426b4a057f0d05c907788f76d42bad51023fe6b",
      "contractAddress": null,
      "l1BatchNumber": null,
      "l1BatchTxIndex": null,
      "l2ToL1Logs": []
    }
  ],
  "libraries": [],
  "pending": [],
  "returns": {},
  "timestamp": 1760005908679,
  "chain": 2741,
  "commit": "22faa38"
}